:100000000C945D000C9485000C9485000C94850084
:100010000C9485000C9485000C9485000C9485004C
:100020000C9485000C9485000C9485000C9485003C
:100030000C9485000C9485000C9485000C9485002C
:100040000C94C9020C9485000C9485000C948500D6
:100050000C9485000C9485000C9485000C9485000C
:100060000C9485000C94850000000008000201003B
:100070000003040700000000000000000000000072
:10008000250028002B0000000000240027002A0083
:10009000040404040404040402020202020203032E
:1000A0000303030301020408102040800102040836
:1000B00010200102040810205A0411241FBECFEFA3
:1000C000D8E0DEBFCDBF11E0A0E0B1E0EEEDFCE096
:1000D00002C005900D92AE32B107D9F721E0AEE231
:1000E000B1E001C01D92A335B207E1F710E0CDE504
:1000F000D0E004C02197FE010E946206CC35D107F2
:10010000C9F70E9413030C946D060C94000090E054
:10011000FC01EC55FF4F2491FC01E057FF4F849107
:10012000882399F090E0880F991FFC01EA57FF4F50
:10013000A591B491FC01E458FF4F859194918FB73C
:10014000F894EC91E22BEC938FBF089590E0FC01C2
:10015000E859FF4F2491FC01EC55FF4F3491FC010D
:10016000E057FF4FE491EE2309F43CC0222339F11C
:10017000233091F038F42130A9F0223001F584B514
:100180008F7D12C0273091F02830A1F02430B9F4CF
:10019000809180008F7D03C0809180008F77809355
:1001A00080000DC084B58F7784BD09C08091B000F8
:1001B0008F7703C08091B0008F7D8093B000F0E016
:1001C000EE0FFF1FE458FF4FA591B4919FB7F8942D
:1001D000611104C08C913095382302C0EC913E2B04
:1001E0003C939FBF0895CF92DF92EF92FF920F93BF
:1001F0001F93CF93DF936C017A018B01C0E0D0E0B5
:10020000CE15DF0581F0D8016D918D01D601ED91FC
:10021000FC910190F081E02DC6010995892B11F028
:100220002196EECF7E01C701DF91CF911F910F91F3
:10023000FF90EF90DF90CF900895CF93DF93EC0184
:1002400060E08E810E94A60061E08E810E94A6007F
:1002500060E08E810E94A6008BE891E00197F1F7A3
:10026000DF91CF910895CF92DF92EF92FF920F939B
:100270001F93CF93DF936C017C0187E0E80EF11CA4
:10028000C0E0D0E0062F10E0B8010C2E02C075953A
:1002900067950A94E2F76170F70181917F010E94EE
:1002A000A6002196C430D10579F7C601DF91CF9120
:1002B0001F910F91FF90EF90DF90CF900C941D0154
:1002C000CF92DF92EF92FF920F931F93CF93DF9322
:1002D000EC01F62E642F8C810E94A6008D818F3F49
:1002E00019F060E00E94A6008F850F2D10E084FFBA
:1002F00025C06E0187E0C80ED11CE12CF12CB8019D
:100300000E2C02C0759567950A94E2F76170F601AC
:1003100081916F010E94A600FFEFEF1AFF0A88E0AB
:10032000E816F10461F7CE01DF91CF911F910F9193
:10033000FF90EF90DF90CF900C941D01B80184E006
:10034000759567958A95E1F7CE010E9433016F2D6F
:10035000CE01DF91CF911F910F91FF90EF90DF9031
:10036000CF900C94330140E0682F8BE391E00C9424
:100370006001CF93DF93823028F090914A0198601A
:1003800090934A0180934E0110924F0180E4809334
:10039000500180E18093510180E58093520180916A
:1003A0003F010E948700809140018F3F11F00E9421
:1003B0008700809141010E948700CBE3D1E09E013C
:1003C0002B53314080914A0184FD03C084E090E0CA
:1003D00002C088E090E021962817390724F48E8126
:1003E0000E948700ECCF8BE39DE00197F1F760E07E
:1003F00080913F010E94A60060E0809141010E942F
:10040000A600809140018F3F19F060E00E94A60095
:1004100080914A0184FD20C063E08BE391E00E945B
:100420003301CBE4D6E4CE010197F1F763E08BE32F
:1004300091E00E9433012197F1F763E08BE391E0B3
:100440000E94330183E592E00197F1F762E08BE3CC
:1004500091E00E94330115C080620E94B3018BE4D9
:1004600096E40197F1F780914A0180620E94B301FE
:1004700083E592E00197F1F780914A0180620E9442
:10048000B30180914A0180620E94B30184E08093AD
:100490004B018CE00E94B30181E00E94B3018BE329
:1004A0009FE10197F1F782E080934C0186E0DF91B4
:1004B000CF910C94B301E0914E01E23010F4E15081
:1004C00001C0E1E0F0E0E55CFE4F9489890F8068AF
:1004D0000C94B30141E00E94600181E090E0089536
:1004E000089580E090E00895009769F0FC01019084
:1004F0000020E9F73197AF01481B590BBC018BE392
:1005000091E00C94F30080E090E008958F929F9228
:10051000AF92BF920F931F93CF93DF93CDB7DEB708
:10052000A1970FB6F894DEBF0FBECDBF19A242301F
:1005300008F44AE08E010F5D1F4F842E912CA12CF0
:10054000B12CA50194010E944006E62FB901CA0111
:1005500001501109EA3014F4E05D01C0E95CD801F2
:10056000EC93232B242B252B61F7C8010E947402E6
:10057000A1960FB6F894DEBF0FBECDBFDF91CF912D
:100580001F910F91BF90AF909F908F9008950E9400
:1005900068061F920F920FB60F9211242F933F936C
:1005A0008F939F93AF93BF938091370190913801C0
:1005B000A0913901B0913A013091360123E0230F27
:1005C0002D3720F40196A11DB11D05C026E8230F8B
:1005D0000296A11DB11D209336018093370190939F
:1005E0003801A0933901B0933A0180913201909182
:1005F0003301A0913401B09135010196A11DB11DC7
:100600008093320190933301A0933401B09335016C
:10061000BF91AF919F918F913F912F910F900FBEFE
:100620000F901F901895789484B5826084BD84B52E
:10063000816084BD85B5826085BD85B5816085BDDD
:1006400080916E00816080936E0010928100809195
:10065000810082608093810080918100816080931D
:100660008100809180008160809380008091B10042
:1006700084608093B1008091B00081608093B0006D
:1006800080917A00846080937A0080917A00826001
:1006900080937A0080917A00816080937A008091C3
:1006A0007A00806880937A001092C10082E00E94F4
:1006B000B9018CE091E00E947402C0E0D0E010E447
:1006C00010937C0080917A00806480937A008091FE
:1006D0007A0086FDFCCF609178008091790070E00F
:1006E000782B072E000C880B990B0E9419052AE025
:1006F00038E240EA5BE30E94CE0520E030E048ECBF
:1007000052E40E94CE056B017C014B015C016093B9
:100710002E0170932F01809330019093310180E07E
:100720000E945B02A7019601C701B6010E943B0629
:10073000882319F089E191E01AC026013701E89475
:1007400077F82FEF3FEF4FE75FE7C301B2010E9459
:100750003B0681110FC02FEF3FEF4FE75FE7C3016B
:10076000B2010E94E30418162CF48DE191E00E947E
:1007700074027AC02FEF3FEF4FE75FE4C701B60185
:100780000E94C90518161CF481E291E0F0CF2FEF0A
:100790003FEF4FE75FECC701B6010E94E30487FD1E
:1007A000F3CF20E030E0A901C701B6010E94E304C5
:1007B00087FF0CC041E06DE28BE391E00E94600195
:1007C00046015701B7FAB094B7F8B0942AE037ED74
:1007D00043EA5BE3C501B4010E9477044B015C016D
:1007E0000E94E8046B017C010E9417059B01AC018B
:1007F000C501B4010E9476044B015C014AE0C701C7
:10080000B6010E94860241E06EE28BE391E00E9415
:10081000600120E030E040E251E4C501B4010E94F3
:10082000CE054B015C010E94E8046B01E12CF12C28
:100830004AE0C701B6010E948602C701B6010E94C4
:1008400017059B01AC01C501B4010E94760420E0AC
:1008500030E040E251E40E94CE050E94E80480E0CE
:1008600090E04AE00E94860285E00E945B0285E2F9
:1008700091E00E9474028CE00E945B022FB7F89412
:1008800060913701709138018091390190913A015E
:100890002FBF28EE33E040E050E00E944006CA013E
:1008A000B9014AE00E948602209709F409CF0E940C
:1008B000000006CFEBE3F1E01382128284E091E0C6
:1008C0009183808385E084838FEF858384E08683B2
:1008D00083E0878382E0808781E0818712861386A8
:1008E00014861586168617860C94B9015058BB27B6
:1008F000AA270E948E040C948F050E94810538F06F
:100900000E94880520F039F49F3F19F426F40C94D6
:100910007E050EF4E095E7FB0C947805E92F0E9424
:10092000A00558F3BA17620773078407950720F0EC
:1009300079F4A6F50C94C2050EF4E0950B2EBA2FAF
:10094000A02D0B01B90190010C01CA01A0011124D5
:10095000FF27591B99F0593F50F4503E68F11A1681
:10096000F040A22F232F342F4427585FF3CF469512
:1009700037952795A795F0405395C9F77EF41F1634
:10098000BA0B620B730B840BBAF09150A1F0FF0FFE
:10099000BB1F661F771F881FC2F70EC0BA0F621FEA
:1009A000731F841F48F4879577956795B795F795DA
:1009B0009E3F08F0B0CF9395880F08F09927EE0F6F
:1009C0009795879508950E94540508F481E008954D
:1009D0000E94A80588F09F5798F0B92F9927B75122
:1009E000B0F0E1F0660F771F881F991F1AF0BA95D3
:1009F000C9F714C0B13091F00E94C205B1E008956A
:100A00000C94C205672F782F8827B85F39F0B93F5B
:100A1000CCF3869577956795B395D9F73EF4909585
:100A20008095709561957F4F8F4F9F4F0895E89403
:100A300009C097FB3EF490958095709561957F4F26
:100A40008F4F9F4F9923A9F0F92F96E9BB279395D4
:100A5000F695879577956795B795F111F8CFFAF4E4
:100A6000BB0F11F460FF1BC06F5F7F4F8F4F9F4F15
:100A700016C0882311F096E911C0772321F09EE873
:100A8000872F762F05C0662371F096E8862F70E0D9
:100A900060E02AF09A95660F771F881FDAF7880FB3
:100AA0009695879597F90895990F0008550FAA0B09
:100AB000E0E8FEEF16161706E807F907C0F0121671
:100AC0001306E407F50798F0621B730B840B950B74
:100AD00039F40A2661F0232B242B252B21F40895C9
:100AE0000A2609F4A140A6958FEF811D811D089566
:100AF00097F99F6780E870E060E008959FEF80ECD1
:100B0000089500240A941616170618060906089573
:100B100000240A9412161306140605060895092ED9
:100B20000394000C11F4882352F0BB0F40F4BF2B48
:100B300011F460FF04C06F5F7F4F8F4F9F4F089588
:100B400057FD9058440F551F59F05F3F71F047957E
:100B5000880F97FB991F61F09F3F79F08795089563
:100B6000121613061406551FF2CF4695F1DF08C082
:100B7000161617061806991FF1CF8695710561059F
:100B800008940895E894BB2766277727CB0197F947
:100B900008950E94540508F48FEF08950E94E1051E
:100BA0000C948F050E94810538F00E94880520F082
:100BB000952311F00C9478050C947E0511240C9467
:100BC000C3050E94A00570F3959FC1F3950F50E0F7
:100BD000551F629FF001729FBB27F00DB11D639FEF
:100BE000AA27F00DB11DAA1F649F6627B00DA11D95
:100BF000661F829F2227B00DA11D621F739FB00D3B
:100C0000A11D621F839FA00D611D221F749F3327AA
:100C1000A00D611D231F849F600D211D822F762F43
:100C20006A2F11249F5750409AF0F1F088234AF020
:100C3000EE0FFF1FBB1F661F771F881F915050408C
:100C4000A9F79E3F510580F00C9478050C94C305DC
:100C50005F3FE4F3983ED4F3869577956795B79513
:100C6000F795E7959F5FC1F7FE2B880F911D96952D
:100C7000879597F908950E945405880B990B08955C
:100C8000A1E21A2EAA1BBB1BFD010DC0AA1FBB1F90
:100C9000EE1FFF1FA217B307E407F50720F0A21B02
:100CA000B30BE40BF50B661F771F881F991F1A946F
:100CB00069F760957095809590959B01AC01BD0199
:100CC000CF010895EE0FFF1F0590F491E02D0994D8
:0E0CD00081E090E0F8940C946D06F894FFCF4C
:100CDE00000000006A02F300710270024573736136
:100CEE006D4D6F68616D6564006E616E00696E6654
:0E0CFE00006F766600557046726F6D3A00000A
:00000001FF
