:100000000C945C000C946E000C946E000C946E00CA
:100010000C946E000C946E000C946E000C946E00A8
:100020000C946E000C946E000C946E000C946E0098
:100030000C946E000C946E000C946E000C946E0088
:100040000C94F9000C946E000C946E000C946E00ED
:100050000C946E000C946E000C946E000C946E0068
:100060000C946E000C946E00000000002400270029
:100070002A0000000000250028002B0004040404CE
:100080000404040402020202020203030303030342
:10009000010204081020408001020408102001021F
:1000A00004081020000000080002010000030407FB
:1000B000000000000000000011241FBECFEFD8E0B8
:1000C000DEBFCDBF21E0A0E0B1E001C01D92A930AC
:1000D000B207E1F70E9443010C9416020C94000051
:1000E00090E0FC01EC55FF4F2491FC01E057FF4FDD
:1000F0003491FC01E458FF4FE491EE2309F43CC035
:10010000222339F1233091F038F42130A9F0223044
:1001100001F584B58F7D12C0273091F02830A1F011
:100120002430B9F4809180008F7D03C080918000DD
:100130008F77809380000DC084B58F7784BD09C010
:100140008091B0008F7703C08091B0008F7D809345
:10015000B000F0E0EE0FFF1FEE58FF4FA591B491F5
:100160009FB7F894611104C08C913095382302C078
:10017000EC913E2B3C939FBF0895CF93DF9390E08B
:10018000FC01E057FF4F2491FC01E458FF4F84919C
:10019000882361F190E0880F991FFC01E859FF4F17
:1001A000C591D491FC01EE58FF4FA591B491611116
:1001B00009C09FB7F8948881209582238883EC91A9
:1001C0002E230BC0623061F49FB7F8948881322FE0
:1001D000309583238883EC912E2B2C939FBF06C0F0
:1001E0008FB7F894E8812E2B28838FBFDF91CF91B2
:1001F00008951F920F920FB60F9211242F933F93E1
:100200008F939F93AF93BF938091050190910601C7
:10021000A0910701B09108013091040123E0230F60
:100220002D3720F40196A11DB11D05C026E8230F2E
:100230000296A11DB11D20930401809305019093A6
:100240000601A0930701B0930801809100019091ED
:100250000101A0910201B09103010196A11DB11D00
:100260008093000190930101A0930201B0930301D8
:10027000BF91AF919F918F913F912F910F900FBEA2
:100280000F901F901895789484B5826084BD84B5D2
:10029000816084BD85B5826085BD85B5816085BD81
:1002A00080916E00816080936E0010928100809139
:1002B00081008260809381008091810081608093C1
:1002C0008100809180008160809380008091B100E6
:1002D00084608093B1008091B00081608093B00011
:1002E00080917A00846080937A0080917A008260A5
:1002F00080937A0080917A00816080937A00809167
:100300007A00806880937A001092C10061E08DE0ED
:100310000E94BD0061E08CE00E94BD0060E082E0D0
:100320000E94BD0060E081E00E94BD000DEA10E087
:1003300090E0E92E90E0F92E20E4D22ED0927C00BD
:1003400080917A00806480937A0080917A0086FDA3
:10035000FCCFC091780080917900D0E0D82BD7FDF8
:100360002396D595C795D595C79561E089E00E94FC
:10037000BD00209711F460E004C0CF3FD10529F4FF
:1003800061E089E00E94700042C0F80184918330EE
:10039000F9F048F48130B9F08230A1F584B580627B
:1003A00084BDC8BD34C08730E9F0883019F184308D
:1003B00049F580918000806280938000D0938B000B
:1003C000C0938A0024C084B5806884BDC7BD1FC0A7
:1003D00080918000806880938000D0938900C093D2
:1003E000880015C08091B00080688093B000C093F1
:1003F000B3000DC08091B00080628093B000C093C4
:10040000B40005C0C038D1050CF0BACFB4CF61E05C
:100410008CE00E94700060E08DE00E947000E114AA
:10042000F10409F48BCF0E94000088CFF894FFCF2D
:00000001FF
