:100000000C9461000C9473000C9473000C947300B6
:100010000C9473000C9473000C9473000C94730094
:100020000C9473000C9473000C9473000C94730084
:100030000C9473000C9473000C9473000C94730074
:100040000C9457010C9473000C9473000C9473007F
:100050000C9473000C9473000C9473000C94730054
:100060000C9473000C94730000000000240027001F
:100070002A0000000000250028002B0000000000DE
:1000800023002600290004040404040404040202DA
:100090000202020203030303030301020408102007
:1000A0004080010204081020010204081020000012
:1000B0000008000201000003040700000000000027
:1000C000000011241FBECFEFD8E0DEBFCDBF21E07E
:1000D000A0E0B1E001C01D92AB30B207E1F70E9491
:1000E000A1010C94F4030C940000833081F028F4F7
:1000F000813099F08230A1F008958730A9F08830DE
:10010000B9F08430D1F4809180008F7D03C080915C
:1001100080008F7780938000089584B58F7702C028
:1001200084B58F7D84BD08958091B0008F7703C022
:100130008091B0008F7D8093B0000895CF93DF93BE
:10014000282F30E0F901E255FF4F8491F901E6567E
:10015000FF4FD491F901EA57FF4FC491CC2391F09E
:1001600081110E947500EC2FF0E0EE0FFF1FE458A4
:10017000FF4FA591B491EC91ED2381E090E021F443
:1001800080E002C080E090E0DF91CF9108951F935E
:10019000CF93DF93282F30E0F901E255FF4F849190
:1001A000F901E656FF4FD491F901EA57FF4FC49188
:1001B000CC23C1F0162F81110E947500EC2FF0E0C6
:1001C000EE0FFF1FEE58FF4FA591B4919FB7F89423
:1001D000111104C08C91D095D82302C0EC91DE2B74
:1001E000DC939FBFDF91CF911F910895CF93DF9351
:1001F00090E0FC01E656FF4F2491FC01EA57FF4FC7
:100200008491882361F190E0880F991FFC01E859DF
:10021000FF4FC591D491FC01EE58FF4FA591B491C9
:10022000611109C09FB7F894888120958223888343
:10023000EC912E230BC0623061F49FB7F894888153
:10024000322F309583238883EC912E2B2C939FBFE4
:1002500006C08FB7F894E8812E2B28838FBFDF91DB
:10026000CF9108953FB7F8948091070190910801CC
:10027000A0910901B0910A0126B5A89B05C02F3FA6
:1002800019F00196A11DB11D3FBFBA2FA92F982FBC
:100290008827820F911DA11DB11DBC01CD0142E037
:1002A000660F771F881F991F4A95D1F708951F92EF
:1002B0000F920FB60F9211242F933F938F939F931A
:1002C000AF93BF938091030190910401A091050128
:1002D000B09106013091020123E0230F2D3720F465
:1002E0000196A11DB11D05C026E8230F0296A11D90
:1002F000B11D209302018093030190930401A09308
:100300000501B09306018091070190910801A09129
:100310000901B0910A010196A11DB11D8093070149
:1003200090930801A0930901B0930A01BF91AF9186
:100330009F918F913F912F910F900FBE0F901F9023
:100340001895789484B5826084BD84B5816084BD3D
:1003500085B5826085BD85B5816085BD80916E0063
:10036000816080936E001092810080918100826094
:1003700080938100809181008160809381008091D1
:1003800080008160809380008091B10084608093C0
:10039000B1008091B00081608093B00080917A00BC
:1003A000846080937A0080917A00826080937A00E2
:1003B00080917A00816080937A0080917A008068D1
:1003C00080937A001092C10061E08DE00E94F600F7
:1003D00061E08CE00E94F60060E080E00E94F600A0
:1003E00060E081E00E94F60097EB292E90E0392E24
:1003F00000E010E060E08DE00E94C70060E08CE06B
:100400000E94C70080E00E949E00019711F461E005
:100410000DC081E00E949E00019739F461E08CE0FC
:100420000E94C70060E08DE006C060E08DE00E94A1
:10043000C70060E08CE00E94C70020E420937C00AD
:1004400080917A00806480937A0080917A0086FDA2
:10045000FCCF609178008091790070E0782B072EB6
:10046000000C880B990B0E94FB0220E030E040E872
:100470005EE30E945F030E94C3026B017C01EB01FB
:1004800070930101609300010E9432014B015C01F5
:1004900084E1482E512C612C712C0E943201DC0128
:1004A000CB0188199909AA09BB09883E9340A10587
:1004B000B10598F381E0481A510861087108E8EE27
:1004C0008E0EE3E09E1EA11CB11C41145104610478
:1004D000710419F761E089E00E94F600209711F499
:1004E00060E004C0CF3FD10529F461E089E00E94BB
:1004F000C70042C0F10184918330F9F048F48130A3
:10050000B9F08230A1F584B5806284BDC8BC34C026
:100510008730E9F0883019F1843049F58091800006
:10052000806280938000D0928B00C0928A0024C0A9
:1005300084B5806884BDC7BC1FC08091800080687E
:1005400080938000D0928900C092880015C080916D
:10055000B00080688093B000C092B3000DC080915D
:10056000B00080628093B000C092B40005C0C03873
:10057000D1050CF0BACFB4CF0115110509F43ACF6B
:100580000E94000037CF0E94CA026894B1110C94F7
:10059000590308950E943E0388F09F5798F0B92FA1
:1005A0009927B751B0F0E1F0660F771F881F991FA8
:1005B0001AF0BA95C9F714C0B13091F00E945803EF
:1005C000B1E008950C945803672F782F8827B85FFF
:1005D00039F0B93FCCF3869577956795B395D9F700
:1005E0003EF490958095709561957F4F8F4F9F4F0A
:1005F0000895E89409C097FB3EF490958095709516
:1006000061957F4F8F4F9F4F9923A9F0F92F96E95E
:10061000BB279395F695879577956795B795F111D3
:10062000F8CFFAF4BB0F11F460FF1BC06F5F7F4F70
:100630008F4F9F4F16C0882311F096E911C0772382
:1006400021F09EE8872F762F05C0662371F096E88B
:10065000862F70E060E02AF09A95660F771F881F5A
:10066000DAF7880F9695879597F9089557FD905872
:10067000440F551F59F05F3F71F04795880F97FB66
:10068000991F61F09F3F79F0879508951216130620
:100690001406551FF2CF4695F1DF08C0161617064F
:1006A0001806991FF1CF8695710561050894089584
:1006B000E894BB2766277727CB0197F908950E9416
:1006C00072030C94E3030E94D50338F00E94DC030C
:1006D00020F0952311F00C94CC030C94D203112438
:1006E0000C9459030E94360370F3959FC1F3950F44
:1006F00050E0551F629FF001729FBB27F00DB11DA6
:10070000639FAA27F00DB11DAA1F649F6627B00D35
:10071000A11D661F829F2227B00DA11D621F739F1E
:10072000B00DA11D621F839FA00D611D221F749F2C
:100730003327A00D611D231F849F600D211D822F73
:10074000762F6A2F11249F5750409AF0F1F088239A
:100750004AF0EE0FFF1FBB1F661F771F881F9150C7
:100760005040A9F79E3F510580F00C94CC030C94A7
:1007700059035F3FE4F3983ED4F3869577956795E8
:10078000B795F795E7959F5FC1F7FE2B880F911DF1
:100790009695879597F9089597F99F6780E870E097
:1007A00060E008959FEF80EC089500240A941616E7
:1007B000170618060906089500240A94121613064F
:1007C000140605060895092E0394000C11F48823DD
:1007D00052F0BB0F40F4BF2B11F460FF04C06F5FF9
:0C07E0007F4F8F4F9F4F0895F894FFCF7C
:00000001FF
